:020000041000EA
:10000000002008205D0100101301001015010010F0
:100010001101001011010010110100101101001058
:100020001101001011010010110100101701001042
:100030001101001011010010190100101B01001026
:100040001D0100101D0100101D0100101D010010F8
:100050001D0100101D0100101D0100101D010010E8
:100060001D0100101D0100101D0100101D010010D8
:100070001D0100101D0100101D0100101D010010C8
:100080001D0100101D0100101D0100101D010010B8
:100090001D0100101D0100101D0100101D010010A8
:1000A0001D0100101D0100101D0100101D01001098
:1000B0001D0100101D0100101D0100101D01001088
:1000C0001D0100101D0100101D0100101D01001078
:1000D0001D0100101D0100101D0100101D01001068
:1000E0001D0100101D0100101D0100101D01001058
:1000F0001D0100101D0100101D0100101D01001048
:100100001D0100101D0100101D0100101D01001037
:1001100000BE00BE00BE00BE00BE00BEEFF3058004
:10012000103800BEF2EB88710002001024020010AB
:10013000A801001090A31AE7D3DEFFFF42012110AF
:10014000FF010000F0960000793512AB4FF000007F
:100150002349086006C881F3088810474FF05040D3
:10016000006810B14FF00000F2E70FA40ECC002998
:1001700002D000F015F8F9E71A491B4A002000E008
:1001800001C19142FCD1002080F30A8817498847B9
:10019000174988471749884700BEFDE701C901C2D2
:1001A0009A42FBD3704700BF2402001010010020C8
:1001B000E0820020F4830010E082002014970020E9
:1001C000289800100000082000000820289800103F
:1001D00000100820001008200000000070470000F8
:1001E00008ED00E01497002024FC0720494E002071
:0801F00061010020414E0020D6
:0801F800B07B001001000000C3
:10020000AC930020B8930020C4930020D09300202A
:10021000DC930020E8930020F49300200094002059
:0402200050950020D5
:10022400F8B500BF064B0749C91A891048BF013108
:10023400491003D0044B0BB101481847704700BF65
:1002440014970020149700200000000008B5054B07
:100254001BB105490548AFF30080BDE80840FFF72E
:10026400E1BF00BF0000000094FB0720E0820020F3
:100274002DE9F04F9DB0C6480CAB0AAA09A902F0BB
:100284009BFE18B9C249C34801F06AFCDDE90901C3
:100294000C9A02F0CFFD4FF0E02305220AA81A6160
:1002A40005F074FB9DF828109DF829309DF82A204C
:1002B4000B449DF82B1013449DF82C200B449DF8FF
:1002C4002D1013449DF82E200B4413449DF82F2029
:1002D4001344981100F4F870C3F30903184402F0AE
:1002E400BBFB04F061FF4FF47A7002F0B5FB80228F
:1002F4000021A94807F088FF192001F0EDFB19221D
:100304004FF0010343EC442043EC40208DF81F30B0
:10031400A24BA34F1B78A04C002B00F0C18001F02E
:10032400F3F88246002840F016820CA90DF122024F
:1003340009A801F0F1F80DF123088346404601F0C5
:1003440093FB8146642002F087FB0426002006F01C
:10035400DDFCB042A8BF30460546002800F0058108
:1003640009AB03EB0A010246002006F0AFFC054688
:1003740000214FF0FF3005F023FE761B002006F02D
:100384005FFC002EAA44E1DC642002F065FB9DF8CA
:100394002220099B012A0C9E00F00582022A03D127
:1003A4009B00B60009930C967E4DF218AA4240F2C7
:1003B4009B81AD1B002D24DD4FF0000ACDF8189071
:1003C400002006F0A3FCA842A8BF284681460028C6
:1003D40000F0FF800AEB060102465944002006F0B3
:1003E40075FC814600214FF0FF3005F0E9FDA5EBD7
:1003F4000905002006F024FC002DCA44E0DCDDF8E9
:1004040018900C9E099B1E44A6F5EA26A6F5806664
:10041400002EC8BF4FF0000A1CDD002006F076FC59
:10042400B042A8BF30460546002800F0C38002460B
:100434000BEB0A01002006F049FC054600214FF0B1
:10044400FF3005F0BDFD761B002006F0F9FB002E01
:10045400AA44E2DC4FF0000A0126002006F056FC14
:10046400B042A8BF3046054600284CD0024608EBEF
:100474000A01002006F02AFC054600214FF0FF3057
:1004840005F09EFD761B002006F0DAFB002EAA4440
:10049400E3DC9DF82360012E46D800233F4A137005
:1004A400414B1B7893B14148394903685A1C8B422C
:1004B400026000F07D813E4B9A4207D119239DF8DA
:1004C4001F2042EC40300023384A1360002004F01F
:1004D4006DFE831C0ED03A78531CDBB2012B3B70AB
:1004E400A0540AD0022B4FD004D9E21812F8021CEF
:1004F400AA297DD0294B1B780EE72378552BF9D0F8
:1005040000233B70F6E701464FF0FF3005F058FD3D
:10051400284606F095FB284606F02AFB00289CD1C5
:100524009DF82360012EB8D94FF00008B6000020D2
:1005340006F0ECFBB042A8BF30460546002800F0A8
:100544002381024609EB0801002006F0BFFB0546A3
:1005540000214FF0FF3005F033FD761B002006F03C
:100564006FFB002EA844E2DC97E701464FF0FF3012
:1005740005F026FD284606F063FB284606F0F8FA47
:1005840000287FF4E3AEFFE66378AA2BB8D1B1E785
:10059400400D03000091002010FB072017FC0720EA
:1005A40014FC07200054070013FC0720709E002051
:1005B400801A060001464FF0FF3005F001FD284681
:1005C40006F03EFB284606F0D3FA00287FF425AF58
:1005D40040E701464FF0FF3005F0F2FC484606F0D4
:1005E4002FFB484606F0C4FA00287FF4E9AE06E77C
:1005F40012F8012C552A7FF47DAF00229248A15CA9
:10060400F02967D00132934200F8011BF7DCA2788D
:10061400062A43D8DFE812F03F000B00070007006A
:100624000D0154004600894804F048FE68E7884BF1
:1006340094F803C0874D1D600CF1FF33012B40F289
:10064400C8806679D4F82B00003E18BF0126BCF19F
:10065400030FD4F8332094F82930217994F83AE040
:1006640000F0BB80CDE9023194F8393006350093AF
:10067400CDE9046EB4F83730D4F82F10019500F0AA
:100684000BFD002800F0A580734804F017FE012339
:10069400724A137034E7052B00F0A780704804F009
:1006A4000DFE2DE700236F4A6F4813706F4A1360E5
:1006B40004F004FE19239DF81F2042EC40301FE78C
:1006C4000123684A6A4813700023684A136004F0DF
:1006D400F5FD15E7A1184978023281F0F001934243
:1006E40000F8011B8BDC92E71D1E7FF7B3AE4FF0C1
:1006F400000ACDF81890002006F008FBA842A8BF15
:1007040028468146B8B10AEB060102465944002046
:1007140006F0DCFA814600214FF0FF3005F050FC72
:10072400A5EB0905002006F08BFA002DCA44E2DC93
:10073400DDF818908EE601464FF0FF3005F040FCDE
:10074400484606F07DFA484606F012FA0028D2D14F
:10075400DDF818907EE619254FF0000343EC405075
:100764004FF47A7002F078F9002004F01FFD023093
:1007740024D000F0DFFA4FF00002384B1A709DF8D5
:100784001F3043EC40508BE601464FF0FF3005F03C
:1007940017FC284606F054FA284606F0E9F9002822
:1007A4007FF4C5AE79E65B00760009930C96FBE511
:1007B40019234FF0000242EC403087E69DF81F30C9
:1007C40043EC40504FF47A7002F046F9234B1B7807
:1007D400A2E5284804F072FD92E60091CDE9016E8D
:1007E4001146AA1D00F0D6FA4BE7234804F066FD33
:1007F400224A23490CA804F067FB0CA804F0DEFD90
:10080400204A21490CA804F05FFB0CA804F0D6FD93
:100814001E4A1F490CA804F057FB0CA804F0CEFD97
:1008240008221C490CA804F04FFB0CA804F0C6FDD8
:1008340066E6194804F042FD4FF47A7002F00CF9B0
:100844000021084602F04AFD10FB0720C490002056
:10085400DCFB072013FB0720B490002017FC0720C3
:100864003C90002013FC0720F4900020709E002090
:10087400EC900020A49000204C90002000E1F505AD
:100884006C90002000C2EB0B78900020005407000D
:100894008890002094900020D490002070B501240A
:1008A4004FF0A04C194D1A4A2B681A4E99010A446C
:1008B40004FA03F3CCF80C341460C6F804340026AC
:1008C40000210A2001F064FA13490A2001F0C6FB52
:1008D400286807F001F91148114D124A06601249BF
:1008E40028681268114B09681A60036804FA01F257
:1008F40023EA0203036007F005F90D4B0D491A685A
:10090400286807F0A3F90C4B1C7070BDE0F20720B7
:1009140010300050003000508D0700200080064049
:1009240078F20720F8F60720ECFB072004F70720ED
:1009340074F20720A093002015FC07201C4AF8B588
:10094400012613464FF0A04C1A4D1B4C286827680B
:1009540081010A441660BA0106FA00F013441E60CD
:100964006144CCF86404CB685B01FCD402F1A0437D
:100974000122BA40CCF86424D96811F08061FBD11B
:1009840001230E4AC2F8040420688340C2F80434E8
:100994000A2001F0FDF90A20094901F05FFB2868EB
:1009A40007F09AF82068BDE8F84007F095B800BF52
:1009B40010300050E0F20720E4F20720003000502D
:1009C400E1820020F8B5404E337853B100243F4D06
:1009D40015F8010F01F0A4F801343378E4B2A3420E
:1009E400F6D83B4B0021187801F066F8394B1B7898
:1009F400022B02D8384A52F82370052002F056F927
:100A0400364B1B689B0103F1A0431A69500107D4BC
:100A1400334B1B689B0103F1A0431A6951014FD565
:100A24009B685A1C01D0FF1A7B1E2E4A2E4C136061
:100A3400FFF784FF0122236800211A630F2001F0CD
:100A4400A7F90F20294901F009FB4FF40075022290
:100A54002068274900F545530263DD630978E9B945
:100A640001222449036809688A4023EA02030360D7
:100A740007F048F8204B214A1B781268206833B1EC
:100A84001F4907F0E3F801221E4B1A70F8BD1E49F6
:100A940007F0DCF801221B4B1A70F8BD00251B4B34
:100AA4001B4910460D60196807F0C6F94FF0E022A3
:100AB400184B0F201968156107F0BEF92068CFE7BD
:100AC4004FF0FF33B1E700BF1BFC072097980020CD
:100AD4001EFC07201AFC0720F0920020E0F20720F9
:100AE400E4F2072004F7072078F20720B508002075
:100AF40022FC0720ECFB07201DFC072074F20720D2
:100B04007C93002015FC072058930020ACFB0720A1
:100B1400000008E0B0FB07202DE9F04782460120E1
:100B24000D4606F0DFFF03464FF00109204E214F2A
:100B34003268214C02F12F4202F56002110DDFF8F8
:100B440088803A68DFF884C004EA4334C8F8003087
:100B5400043209FA03F344EA8A0402EBC102CCF832
:100B640004340A20154924F4FC0444EA424401F004
:100B740051F949460A2001F00BF900210A2001F03D
:100B840067FB4FF488520E4B39681A60D8F800306E
:100B94003268083102EB81029B010A4903F1A04348
:100BA40044F041041A6059609D60DC60BDE8F08740
:100BB40078F20720ECFB0720FDFF7FFC8D07002067
:100BC40000800640749E0020E0F2072000200050C0
:100BD40001282DE9F84F00F0868002287BD00028F8
:100BE40000F089804FF0000BDFF838A1012006F0F7
:100BF40079FF0346434E0120336006F073FF054638
:100C04000120DFF82481DFF82491D8F80030D9F8E6
:100C1400002003F12F4303F560031B0D04323168F8
:100C240002EBC302384BDFF808E1384F03EA413CDA
:100C340000FA01F44CEA0B0C3D602CF4F03CCEF8C5
:100C440004444CEA4534D7F800C00A2003EA4C3582
:100C5400012345EA0B0503FA0CF3D6F800C025F48A
:100C6400F03545EA4C35CEF80434294924F4FC0423
:100C740025F4FC0544EA424445EA424501F0CAF839
:100C840001210A2001F084F800210A2001F0E0FA91
:100C94003A683368D9F80070D8F800001D49DAF8CA
:100CA40000C0920107F108069B0102F1A04203F182
:100CB400A04300EB860044F0410445F04105106078
:100CC4005160C2F808C0156118605960C3F808C0C3
:100CD400DC60BDE8F88FDFF84CA00F4B4FF0080B39
:100CE400CAF8003082E7DFF83CA00C4B4FF0040B4D
:100CF400CAF800307AE7DFF82CA0094B8346CAF81B
:100D0400003073E7E0F20720FDFF7FFCE4F20720E8
:100D1400E1820020749E002000D5010000AA030097
:100D240000540700F8FB072078F20720ECFB0720AB
:100D340000200050124B1B78C3B9124A124B1068A2
:100D4400124A1968134610B501248001890102442E
:100D54000B4414601C60EFF3108472B60C4B1B78C8
:100D64002BB1032B08D084F3108810BD7047FFF714
:100D740029FE84F3108810BDFFF790FDF3E700BF50
:100D840015FC0720E0F20720E4F2072010300050A1
:100D94001CFC07202DE9F04F2DED028B8DB09DF842
:100DA40068701D46022F98BFA34B804698BF53F826
:100DB40027C00C468C4516469DF860909DF864A0AB
:100DC40008D39E4B984205D86B1E072B02D8B9F165
:100DD400080F05D900200DB0BDEC028BBDE8F08FE3
:100DE4000021974A974807F00FFA00229649974B3B
:100DF4000A603178012D585C95490C6095490A6068
:100E0400954A1570954A82F800A0954A1770954A3C
:100E1400107020D07178022D595C51701BD0B178BC
:100E2400032D595C917016D0F178042D595CD17062
:100E340011D03179052D595C11710CD07179062DC1
:100E4400595C517107D0B179082D595C917102D167
:100E5400F179595CD17113F8093005201A460293CF
:100E6400814B824E1A7001F0DFFF07EE908A07EE85
:100E7400100AF8EEE77AB8EE477A7D4887EE278ABB
:100E8400306006F0FFFE0121306806F049FE02469C
:100E940001254FF0004C3068DFF8F49102EB420377
:100EA400C9F8002000EBC303043203F586539540D0
:100EB40000F5005EC3F810C0DFF8D8B1C3F810C065
:100EC4006C49CEF8005006F047FE5D466A4B0BF1C4
:100ED400080818600023009315F8012F0123D9F89E
:100EE4000010306806F0E8FEA845F3D131681BF81D
:100EF400010F01F12F4101F56001090D0631C9B25D
:100F040000F0BCFDC345F1D10023029D0093D9F844
:100F1400001001232A46306806F0CEFE31682846C8
:100F240001F12F4101F56001090D0631C9B200F04C
:100F3400A5FDBAF1000F79D04F4BDFED507AD3F80D
:100F440000C0002307934FF4402378EE277A0693DA
:100F54000CF101034FEA033E4FF480324EEAC31E04
:100F6400BCEEE77A4FF4F833CDE9042317EE103AD8
:100F74000DF1200804AD1FFA83FA95E80F0088E804
:100F84000F00CDF824E098E80F0085E80F00BAF1CF
:100F9400000F49D007EE10AAB8EE477ADFED386AA1
:100FA40077EEC77A67EEA67AFCEEE77ACDED037AA0
:100FB4009DF80C301B0243EA0A430493029B4FF44E
:100FC40050211B062EF0F85E03F0F85343EA0E039B
:100FD40005932B46012530680691D9F80010624626
:100FE400D0F800C005FA01FE2CEA0E0CC0F800C0CF
:100FF40006F0A8FE21463846FFF78EFD0022214B5D
:1010040031681A70D9F80030086805FA03F303430D
:10101400032428460B601C491C4B0A701C700DB03D
:10102400BDEC028BBDE8F08F5346C4E70121029862
:1010340000F042FD80E700BFF092002000C2EB0BFD
:1010440000540700749E0020FCF60720FC92002048
:10105400F8F60720F4F607201BFC07201DFC0720E8
:101064001AFC0720989800201EFC072078F207201D
:1010740000002050A093002074F207200000003BE1
:101084000000804315FC072016FC07201CFC0720E9
:10109400ECFB0720FB9200202DE9F04F2DED028B95
:1010A4001D468DB09DF874809DF87040B8F1020F14
:1010B40098BF574B029498BF53F828C005FB0223EE
:1010C4000B44634507460E4614469DF860A09DF800
:1010D40068909DF86CB00ED84E4B98420BD8BAF17C
:1010E400000F01D0FD2D06D809F1FF33072B02D8DC
:1010F400BBF1080F05D900200DB0BDEC028BBDE893
:10110400F08F0021444A454807F07EF8444A454B95
:101114001660199A02981278B9F1010F995C424A43
:101124001460424A1560424A82F80090414A1070A5
:10113400414A82F80080414A11702DD01999B9F1C1
:10114400020F4978595C517026D01999B9F1030FEF
:101154008978595C91701FD01999B9F1040FC97835
:10116400595CD17018D01999B9F1050F0979595CF6
:10117400117111D01999B9F1060F4979595C51715E
:101184000AD01999B9F1080F8979595C917103D181
:101194001999C979595CD17113F80B3005201A4695
:1011A4000393274B7F001A7001F03EFE07EE907AFE
:1011B40007EE100AF8EEE77AB8EE477A2148224E95
:1011C40087EE278A306006F05DFD0121306806F065
:1011D400A7FC02464FF0004701211C4B30681A60FF
:1011E40002EB420300EBC30303F586531F61043291
:1011F4001F61029B00F5005C9140CCF800104BB3DA
:10120400BAF1000F00F00281114906F0A5FC28E0B4
:10121400F092002000E1F50500540700749E0020C0
:10122400FCF60720FC920020F8F60720F4F60720CD
:101234001BFC07201DFC07201AFC0720989800209F
:101244001EFC07200000205078F20720ECFB07204A
:1012540004930020BAF1000F40F0DC80974906F0B7
:101264007BFCDFF89CB2964B5F4618600BF10809D3
:1012740000239449009317F8012F0123096830686B
:1012840006F01AFDB945F3D131681BF8010F01F1DD
:101294002F4101F56001090D0631C9B200F0EEFBE2
:1012A400D945F1D10027DDF80C90864901234A463F
:1012B40009683068009706F0FFFC3168484601F180
:1012C4002F4101F56001090D0631C9B200F0D6FBCA
:1012D4007B4B029A1B68BAF1000F00F0A180002A30
:1012E40000F0AB804FF44022079703F10F0E0692F3
:1012F4000DF1200C04AF0733DFED737A78EE277A13
:101304004FEA0E3E4FF480324EEAC31E4FF4F833D8
:10131400BCEEE77ACDE9042397E80F008CE80F00D0
:10132400CDF824E09CE80F0087E80F00079B23F426
:101334007823079317EE103A9AB2002A6ED007EE7C
:10134400102AB8EE477ADFED616A77EEC77A67EE66
:10135400A67AFCEEE77ACDED027A9DF808301B02FE
:101364004FF0010943EA02434FF480720493069B51
:10137400059923F0FA7323F48033039843F4A023EC
:101384000693336860F31C610591C3F8309003F54C
:1013940005530F204E491A6300F03CFD49460F20C7
:1013A40000F0F6FC15B1BAF1000F5BD100203B460A
:1013B4004849444F424A087012683968306806F058
:1013C400C1FC4046FFF704FC0122316838680E680E
:1013D40002FA00F333430B6000F110039A404B68A8
:1013E4001342FCD101EB80000561013C4B681340C2
:1013F400FCD104610120384A38491370384A0B7013
:1014040013700DB0BDEC028BBDE8F08F354906F0CA
:10141400A3FB26E7344906F09FFB22E713469FE728
:10142400CDF81CA0A2B14FF4402203F10C0E069299
:101434000DF1200C04AF06335EE707924FF440220F
:1014440003F1060E06920DF1200C04AF053353E7A9
:101454004FF4402203F1050E06920DF1200C04AF67
:10146400043349E74FF002094FF400703268002159
:1014740002F50553C2F83090D863102000F0E8FE5E
:101484004FF48032194B1A491A60484606F0AEFCF4
:101494000022184B18491860184B0F201A7006F0D8
:1014A400A5FC4FF0E0236FF07F420721DFF854C022
:1014B400CCF800005A619A61196177E77C930020A7
:1014C40074F20720ECFB07200000003B000080437F
:1014D400B508002022FC072015FC072016FC072075
:1014E4001CFC0720589300202C930020000008E0E7
:1014F4003D830020ACFB07202D83002021FC072026
:10150400FB920020B0FB0720024B187880F001000A
:10151400704700BF15FC07202DE9F04F6F4B704C4E
:101524001B68246897B003FB04446E4B03921B684A
:101534006D4A1C4412786D4BCDE901011B785AB1F8
:101544006B4A1668039A6B481370019B1C60029BDC
:101554001E6017B0BDE8F08F674A022B116807D9E7
:10156400634A481C061B166001225F490A70E9E7BA
:10157400624A481C52F823B0621E8A4200F2C880B4
:101584005B4A061B012B166000F0CA80022B5C4AE2
:1015940040F086811778032F00F0378200221392DF
:1015A400002CE1D00122574D5748297890F801903A
:1015B4001291817890F800800591C17802FA08FAB6
:1015C40007910179514D099141792D780B918179D8
:1015D400C0790D9102FA09F1069105990E9002FA6B
:1015E40001F108910799049702FA01F10A91099906
:1015F400404802FA01F10C910B994FF0000C02FAE9
:1016040001F10F910D9902FA01F110910E998A409E
:1016140031461192CDE91463049B50F82120032B29
:1016240000EB810E50D0002D55D00AEA0203012DA3
:1016340023FA08F336D0069E022D06EA020626FA9D
:1016440009F643EA46032DD0089E059F1640FE4046
:10165400032D43EA860325D00A9E079F1640FE40C9
:10166400042D43EAC6031DD00C9E099F1640FE407C
:10167400052D43EA061315D00F9E0B9F1640FE401E
:10168400062D43EA46130DD0109E0D9F1640FE40D2
:10169400072D43EA861305D0119E32400E9EF24078
:1016A40043EAC21301310CF1010C8B4598BF0021B0
:1016B4006445CEF8003000F0DA80049B50F8212015
:1016C400032B00EB810EAED1129B002BABD1139BED
:1016D4005A40002DA9D12B46E4E700BFF4F60720B9
:1016E400F8F60720FCF6072016FC07201AFC072052
:1016F40000F70720749E002004F70720E4920020DE
:101704001CFC07201DFC0720989800201BFC0720C8
:101714005D4AABEB04010E18012B16607FF436AF63
:101724005A4A92F800E0BEF1030F00F086810022CD
:101734001392002C3FF418AF4FF001085448554958
:10174400007832461290544800270578487891F87A
:1017540000900590887804940690C87808FA09FAED
:10176400089008790A9048790C908879C9790E9084
:1017740011910599494808FA01F10791069908FA67
:1017840001F10991089908FA01F10B910A9908FAF3
:1017940001F10D910C9908FA01F10F910E9908FAD3
:1017A40001F11091CDE91463BEF1030F30F812106A
:1017B40000EB420C5ED0002D63D00AEA010343FA29
:1017C40009F3012D9BB247D0079E059C0E4026418C
:1017D40043EA4606022DB3B23ED0099C032D04EA27
:1017E4000106069C46FA04F643EA8606B3B233D0F1
:1017F4000B9C042D04EA0106089C46FA04F643EA0D
:10180400C606B3B228D00D9C052D04EA01060A9C35
:1018140046FA04F643EA0616B3B21DD00F9C062D11
:1018240004EA01060C9C46FA04F643EA4616B3B2EF
:1018340012D0109C072D04EA01060E9C46FA04F609
:1018440043EA8616B3B207D0119C08FA04F60E4098
:10185400264143EAC616B3B2ACF80030049B013209
:101864000137934598BF0022BB429DD11C46DDE958
:10187400146379E6129B002B9DD1139B5940002DD4
:101884009BD12B46E8E700BF00F707201CFC07208C
:101894001DFC0720989800201BFC0720749E002044
:1018A40092F800E0BEF1030F00F0BB800022139217
:1018B400002C3FF459AE4FF00108664866490078A1
:1018C40032461290654891F8009005784878BEF148
:1018D400030F0590887804940690C8784FF00007A9
:1018E4000890087908FA09FA0A9048790C908879DE
:1018F400C9790E9011910599594808FA01F1079197
:10190400069900EB020C08FA01F10991089908FA0A
:1019140001F10B910A9908FA01F10D910C9908FA59
:1019240001F10F910E9908FA01F11091CDE91463B8
:10193400815C61D0002D66D00AEA010343FA09F301
:10194400012DDBB247D0079E059C0E40264143EA99
:101954004606022DF3B23ED0099C032D04EA01068B
:10196400069C46FA04F643EA8606F3B233D00B9C8F
:10197400042D04EA0106089C46FA04F643EAC60666
:10198400F3B228D00D9C052D04EA01060A9C46FA00
:1019940004F643EA0616F3B21DD00F9C062D04EAA2
:1019A40001060C9C46FA04F643EA4616F3B212D03A
:1019B400109C072D04EA01060E9C46FA04F643EA3D
:1019C4008616F3B207D0119C08FA04F60E4026419D
:1019D40043EAC616F3B28CF80030049B0132013797
:1019E400934598BF0022BB423FF440AFBEF1030FC2
:1019F400815C00EB020C9DD1129B002B9AD1139BAE
:101A04005940002D98D12B46E5E7124A1278002A56
:101A14007FF4C4AD0121134A127801FA02F2139241
:101A2400BEE50C4A1278002A7FF440AF01220D492A
:101A340009788A40D2B213923AE7064A1278002A09
:101A44007FF475AE0122074909788A4092B2139255
:101A54006FE600BF1DFC0720989800201BFC0720A0
:101A6400749E00201EFC07200346024A0248127896
:101A74001A70704722FC072010F7072010B44FF4A7
:101A840080740C4B53F8202003EB8003C00082F0D9
:101A9400400200F1804003F5805C02F0C00200F5D2
:101AA400203003F54053CCF8002041601C605DF801
:101AB400044B704704800340C00000F180400430B0
:101AC40000F520331B6800F5243083EA014303F456
:101AD40040330360704700BF30B44FF0000343EC61
:101AE400440043EC400005254FF480740B4BC200C6
:101AF40053F8201003EB800081F0400102F1804391
:101B040003F5203301F0C00200F5805100F5405088
:101B14000A605D60046030BC704700BF048003400D
:101B240010B44FF480711F240C4B53F8202003EBA6
:101B34008003C00082F0400200F1804003F5805C25
:101B440002F0C00200F5203003F54053CCF8002029
:101B540044605DF8044B1960704700BF0480034083
:101B64000FB400B583B0049C074803F0A7FB3CB155
:101B740005A92046019103F0D1F9044803F09EFB26
:101B8400012003F0E3F900BF3491002044910020C8
:101B9400EFF3108072B6064BD3E8CF1F0122002961
:101BA400FAD1C3E8412F0029F6D1BFF35F8F704704
:101BB4005B9A00200023034AC2E88F3F80F3108819
:101BC400704700BF5B9A002070B58646EFF310851E
:101BD40072B6124CD4E8CF6F0120002EFAD1C4E8BB
:101BE400460F002EF6D1BFF35F8F4FF0010CC808EB
:101BF40001F007030CFA03F31EF800C01CEA030605
:101C040008D14CEA030C0EF800C0C4E88F6F85F3CA
:101C1400108870BD1046FFF7A3FF00BF5B9A002039
:101C2400F8B5EFF3108772B61C4ED6E8CF5F0124E7
:101C3400002DFAD1C6E8454F002DF6D1BFF35F8FD2
:101C44009A421BD8012502E00132934222D3D408E0
:101C540010F804E002F0070C05FA0CFC1EEA0C0F65
:101C6400F2D14EEA0C0E00F804E010460023C6E858
:101C74008F3F87F31088984207DBF8BD0023C6E83E
:101C84008F3F87F310884FF0FF300029F5D0069876
:101C9400FFF766FF4FF0FF30E8E700BF5B9A0020D4
:101CA40000B5EFF3108E72B6104BD3E8CFCF0122FC
:101CB400BCF1000FF9D1C3E84C2FBCF1000FF4D1F3
:101CC400BFF35F8F01224FEAD10C01F0070102FA42
:101CD40001F110F80C2022EA010200F80C20002285
:101CE400C3E88F2F8EF310885DF804FB5B9A002005
:101CF400044A1078431CDBB2182B28BF102313703E
:101D0400704700BF1C96002010B5054C82B00146F8
:101D14001F23182200940348FFF782FF02B010BD6E
:101D24004891002084F207204FF0E022936843F0AA
:101D340000539360704700BF0021044B03F120025D
:101D4400C3E88F1F01339342FAD17047509A0020A1
:101D54004FF0E0234FF08032C3F80024C3F804248A
:101D6400C3F80824C3F80C24C3F81024C3F81424BB
:101D7400C3F81824C3F81C24C3F82024C3F824246B
:101D8400C3F82824C3F82C24C3F83024704700BFB8
:101D9400012300F01F029340400941B1800000F18B
:101DA400604000F56140C0F8803103607047024A2A
:101DB400203042F82030704700E100E00123064A59
:101DC400410952F8212000F01F0003FA00F01040EE
:101DD400003818BF0120704700E100E001224309E8
:101DE400034900F01F008240403341F8232070472C
:101DF40000E100E0054A10309268054B52F82000DB
:101E0400C01A2F288CBF00200120704700ED00E08D
:101E140020960020F8B50D46EFF3108772B6124EE7
:101E2400D6E8CF2F0123002AFAD1C6E8423F002A80
:101E3400F6D1BFF35F8F0D4B00F110049B680C4A81
:101E440053F82430934203D0994201D001F094FA1C
:101E5400064B9B6843F82450BFF35F8F0023C6E80A
:101E64008F3F87F31088F8BD599A002000ED00E0F9
:101E74001D0100102DE9F04F81468B46164683B0B4
:101E8400EFF3108372B6DFF8D0A10093DAE8CF1F26
:101E940001230029FAD1CAE8413F0029F6D1BFF352
:101EA4005F8F664B93F90040002CC0F2A080644D14
:101EB40004EB440705EB870898F8061009F11009AC
:101EC4001970604BBF009B6853F829006300411BE5
:101ED4002F292FD95C49884240F0A4801C445B4BD5
:101EE40002372F44043BDB1BC3F34A036FEAC343AB
:101EF4004FF421416FEAD34325F8241005EB840401
:101F040063804BF60153A380FF2348F00100E67180
:101F1400C4F808B0A3714B4B9B6843F82900BFF386
:101F24005F8F0023CAE88F3F009B83F3108803B0C0
:101F3400BDE8F08F20F0010E9EF80710B1422ED8B4
:101F44004FF42143EB53414BB91C2944043B043760
:101F54005B1A2F44AEF10401C91BC1F34A043C4986
:101F6400C3F34A030B432143A8F804103949A8F8E2
:101F740002304AF6AA2073465B1B5B415843000DAE
:101F840088F8076088F80600C8F808B048F001002F
:101F9400CEF80010BFE7D179B1422ED996469EF90A
:101FA40006C00CEB4C02BCF1000F05EB8202F2DA26
:101FB4004BF601510EF10402A8F10407BF1AC7F34E
:101FC4004A076FEAC7476FEAD7478EF8064003EB24
:101FD4000408204C05EB8803AEF8047045F828404B
:101FE400998083F806C0DE71C3F808B093E701F066
:101FF400C3F9124B93F9004059E7724632F8041FB3
:10200400490514D44915023102EB410101916FF0E5
:102014000701C91B019F491B3944C1F34A0141F41B
:102024006041C9E7019301F0A7F9019B56E701F567
:10203400FF1101F5FF511F31E4E700BF18FC072031
:102044002096002000ED00E01D01001050960020B5
:1020540000E0FFFF01488047599A00202DE9F04F26
:1020640083B0EFF3108A72B6714ED6E8CF2F0123F6
:10207400002AFAD1C6E8423F002AF6D1BFF35F8FA7
:102084006C4B00F110089B686B4A53F8285095423A
:1020940045D08D420C4650D0684FEB1B2F2B3ED8B9
:1020A40001214FEA50194FEA890909F1604909F5FC
:1020B400614900F01F0301FA03F0D9F80030C9F8B0
:1020C400800000EA030BBFF35F8FEFF30581C9B211
:1020D400002934D0884505D0CDE9001001F04CF931
:1020E400DDE9001025F0010EDEF808C0644505D1D5
:1020F40089E0D3F808C0644531D09E469EF9062095
:1021040002EB4203002A07EB8303F2DA644561D051
:10211400BBF1000F20D0C9F88001C9F80000454B7D
:102124009B6843F82850BFF35F8F0023C6E88F3FB6
:102134008AF3108803B0BDE8F08F1546EFE725F069
:10214400010EDEF808C06445D8D19EF906407346F6
:10215400002C08DA154646E0C9F88000DFE793F959
:102164000640002C37DB04EB440C07EB8C0C9CF88A
:102174000710DCF80820D9719A609CF906206100E8
:10218400002A9A713DDBBCF804E05FEA4E5E05D597
:102194000EF5FF1E0EF5FF5E0EF11F0E6FF0070C1D
:1021A4000A194FEA6E5E920002EB4E0208323A447C
:1021B400ACEB030C6244C2F34A026FEAC2426FEA18
:1021C400D2429A801E4B21441A7807EB81011C707D
:1021D4008A719DE77346D9B9FF228EF806204BF623
:1021E4000152AEF80420164C4AF6AA2294F800C014
:1021F4001946C91B49414A43120D83F806C022708F
:1022040086E7104ADDE79EF906407346002CAADAF9
:102214000D4A0E4CD21A083AC2F30A316FEA015140
:102224006FEA115144EA5202DA80998070E700BFE4
:10223400599A002000ED00E01D01001020960020B6
:1022440018FC072001BDFFFF5A96002000F8FFFF8D
:102254004FF0FF0C20F0030303F1604303F56443E4
:1022640000F003001A68C0000CFA00FC22EA0C0219
:1022740081400A431A607047F0B5EFF30585EDB26B
:10228400EFF3108C72B62649D1E8CF2F0123002A30
:10229400FAD1C1E8423F002AF6D1BFF35F8F214E45
:1022A40040F0010EB4684AF6AA2354F825701E4A79
:1022B4000446A41A644163431B0D77455BB21BD0EB
:1022C40092F906409C421CD092F912409C4223D0C1
:1022D40092F91E409C4221D092F92A409C4208BFA8
:1022E40003240FD0114A0024157813708571C1E8B6
:1022F4008F4F8CF31088F0BDB2680D4C42F8254026
:10230400F0E7002404EB440402EB8402FF249471FC
:102314004BF601549480E5E70124F3E70224F1E746
:10232400599A002000ED00E02096002018FC0720B8
:102334001D01001010B5074C82B001460523002290
:1023440000940548FFF76CFC0028A8BFC0F13300D7
:1023540002B010BD6491002023FC0720014B0B4404
:1023640003607047509A002070B5104C104DAC4279
:102374000ED2FF26236863B1FFF7BAFC014620465C
:10238400FFF7ECFFA680BFF35F8F0834AC42F1D3B4
:1023940070BDFFF7ADFC01462046FFF7DFFF267155
:1023A400BFF35F8F0834AC42E4D370BDB89600200D
:1023B400C896002010B50446FFF79AFC0146204653
:1023C400FFF7CCFFFF232371BFF35F8F10BD00BF66
:1023D40010B504460120FFF797FC034B0344236028
:1023E400BFF35F8F10BD00BF509A0020024B0B4417
:1023F4000360BFF35F8F7047509A00200D4B1A683B
:10240400EFF3108172B6D2E8CFCF0120BCF1000FF8
:10241400F9D1C2E84C0FBCF1000FF4D1BFF35F8FC8
:1024240000221B68C3E88F2F81F3108840BF00206F
:1024340000217047E8FB07202DE9F04F2DED028BBA
:1024440085B0EFF30583DBB2103B9A0818BF012275
:102454004FF0010103F0030B18BFAF4DAF4B08BFA2
:10246400AF4D0BEB820253F8226001FA0BF205F533
:1024740041539FEDA78B01925A602FE0B3881C044F
:1024840040F19380B379002B40F0DD80B6F9082049
:10249400002AC0F21E81736902EB420203EBC203FD
:1024A400D3E90247B7F1FF3F08BFB4F1FF3F0ED0B5
:1024B40005EB8B01AB6A0A69D21AE31A934205D37E
:1024C40001232A6A03FA0BF3134200D10C61284654
:1024D40000F0ACFBA042B941C0F2FB80B6F9083071
:1024E400019A002B0093EA63C8DBD6F8148003EB4F
:1024F4004309284608EBC907D7E9024A00F096FBCE
:10250400A04271EB0A01B9DBBAF1000FC0F2C3803B
:10251400D7E90431834A934200F0ED807A88B6F912
:10252400080092B242EA0040984702460B4652EA3B
:10253400030100F0B080002B80F2D180B4EB020ED6
:102544006AEB030A38F93930C7E902EA002B95DB54
:10255400716903EB430201EBC202D2E90270BE458A
:102564007AEB000C4FEA430288DBB4462CF8083FB0
:1025740006E003EB430001EBC0005A00D0E902700F
:10258400BE451A447AEB000001EBC20404DB31F9C6
:102594003230A446002BECDA28F83930009BACF832
:1025A4000030B3881C043FF56DAF3369EFF310823C
:1025B40072B6D3E8CF0F01210028FAD1C3E8401F37
:1025C4000028F6D1BFF35F8F4FF6FF74B088002365
:1025D400316900B2B480C1E88F3F82F31088984219
:1025E400FFF650AF0746A946746906F1080807EBE1
:1025F400470E04EBCE03D3E90250B6F90830C446C3
:10260400002B13DBB246009704E034F936309446CD
:10261400002B09DB03EB430604EBC602D2E902718B
:10262400BD4270EB0101F0DA5646009FACF8007031
:1026340034F93E7024F83E30002FD8DAB3794D4691
:10264400002B3FF423AF0023B371B6F9083006F131
:102654000808581C3DD01A46776903E08046591C87
:102664003FF416AF03EB430107EBC100B0F802C01F
:102674001C461CF4004F9E4637F93130EED094428C
:1026840080ED028B05D0A8F80030328927F831207C
:1026940034817246E3E738F8393033813369EFF334
:1026A400108272B6D3E8CF0F01210028FAD1C3E813
:1026B400401F0028F6D1BFF35F8F7388316928F873
:1026C4003930009B73800023C1E88F3F82F3108868
:1026D400D4E640BF05B0BDEC028BBDE8F08F2846C0
:1026E400CDE9022300F0A2FA029A039B10EB020E3A
:1026F40043EB010A26E708460B6902919847002834
:10270400C9D00299D1E9002311E700BFAFF30080DB
:10271400FFFFFFFFFFFFFFFF00800B40BCFB072014
:1027240000000B40292300202DE9F84F364C256981
:102734002DB1BDE8F84F0A213448FFF70FBEDFF88A
:10274400E4800321404600F05FFA0326C4F80C80BD
:10275400FFF7CEFA4FF0504C2D4B26700344236103
:10276400DCF800300F216370636961801D834FF0D2
:102774000405A3F878504FF00505A3F890504FF0E6
:102784000605A3F8A8504FF007050E214FF6FF7277
:1027940008274FF00A0EA3F8C0504FF001094FF07C
:1027A4000C0C4FF0020B4FF0090A0D204FF00B05F3
:1027B400A3F868111749A280A3F808E1A160A3F85F
:1027C40048B0A3F8F0A0A3F82051A3F838C1A3F8A7
:1027D4005001A3F83090A3F86060A3F8D8701A8071
:1027E4000D4B3046C8F820700C49DC60FFF712FB33
:1027F40049463046FFF7CCFA094B0A211F640348C7
:10280400BDE8F84FFFF7AABD68960020E8FB072053
:10281400509A0020FFFF1000BCFB07202923002052
:1028240000200B4000000B400048704768960020D1
:10283400F8B59DF82050044617461E4635B900F0F9
:10284400FDF9874266EB010100295CDB2169EFF3A6
:10285400108372B6D1E8CF0F01220028FAD1C1E863
:10286400402F0028F6D1BFF35F8FB4F902206569C9
:1028740002EB4201002A4FEAC10C206905EBC101B9
:1028840039DB35F80CE0A4F802E04FF0000EC0E8A4
:102894008FEF83F310884888069B0130C0F30E0045
:1028A400012838BF01200B61079B48804B61C1E9B7
:1028B400027640EA02402369EFF3108172B6D3E84E
:1028C400CF7F0126002FFAD1C3E8476F002FF6D13E
:1028D400BFF35F8FA38825F80C30A2802369C3E877
:1028E4008FEF81F310880122E368217803F5015307
:1028F4008A405A60F8BD0022C0E88F2F83F3108805
:102904004FF0FF30F8BD2846F8BD00BF0146F0B5D2
:102914000069EFF3108772B6D0E8CF5F0124002D71
:10292400FAD1C0E8454F002DF6D1BFF35F8FB1F95E
:1029340002E04C690EEB4E0CBEF1000F4FEACC05E1
:10294400086904EBCC0C3CDB665B4E800026C0E8D7
:102954008F6F87F31088BCF80200CCE902230130A2
:10296400C0F30E00012838BF0120059BACF802001B
:10297400CCF81030069B40EA0E40CCF814300B69BA
:10298400EFF3108272B6D3E8CFCF0127BCF1000F6A
:10299400F9D1C3E84C7FBCF1000FF4D1BFF35F8FD2
:1029A4008B886353A1F804E00B69C3E88F6F82F34B
:1029B40010880122CB68097803F501538A405A60D4
:1029C400F0BD0023C0E88F3F87F310884FF0FF303D
:1029D400F0BD00BF03464089B0EB214F37DD586995
:1029E4000A1402EB420210B500EBC2001C69EFF3BB
:1029F400108C72B6D4E8CFEF0122BEF1000FF9D1EA
:102A0400C4E84E2FBEF1000FF4D1BFF35F8F4288AC
:102A140089B292B28A4207D000221B69C3E88F2F81
:102A24008CF31088002010BD42F400424280012142
:102A3400002218699971C0E88F2F8CF310881C78D4
:102A4400DA68084602F50153A140596010BD002020
:102A5400704700BF407870472DE9F04182B00646C8
:102A640000F0ECF84FF47A7304464FF0FF306FF047
:102A74000042E6FB0341A04272EB01033ABF044665
:102A840015460D46A61F45F1FF37B44275EB070303
:102A94003CBF0026374600F0D1F8301A67EB01013D
:102AA400012871F1000106DA2046294602B0BDE88A
:102AB400F04100F03FB900F0C1F8864267EB010134
:102AC40000290ADB0021174B3246009316483B4687
:102AD4000191FFF71BFF0130E6D04FF0000C134AC1
:102AE4001349536A9F4204D8906AB042DCD29F4291
:102AF400DAD10B68EFF3108072B6D3E8CF8F5FF0B2
:102B0400010EB8F1000FF8D1C3E848EFB8F1000F97
:102B1400F3D1BFF35F8F0B68C3E88FCF80F31088C6
:102B240020BFDEE7ED2200206896002000000B4065
:102B3400E8FB07202DE9F04306460D4683B0EFF38A
:102B44000584E4B23CB12D4B5A6AAA421CD200203F
:102B540003B0BDE8F0832A4FD7F80C9097F80080B3
:102B6400484600F063F808F1040859F828301B1AA5
:102B7400301A65EB0101984271F1000110DB20BFAE
:102B84001E4B5A6AAA42E2D314BF012400249B6A52
:102B9400B34234BF204644F0010003B0BDE8F083E3
:102BA40000F04CF8864265EB0101002914DB154B5B
:102BB4003846CDE9003432462B46FFF7A7FE011E06
:102BC4000ADD0E4B5A6AAA4216D39B6AB34211D34A
:102BD4000B48FFF7FFFEB6E7084B5C6AAC42B6D37E
:102BE400641B18BF01249B6AB34234BF204644F0DF
:102BF4000100ADE7AA42EBD120BFE9E700000B409A
:102C040068960020ED22002010B4054B054C064ABE
:102C1400A04214BF1846581C5DF8044BFEF7D4BFFD
:102C240088F2072000800B40809100200346416A0F
:102C34000A46986A596A8A42FAD17047034B596A1C
:102C44000A46986A596A9142FAD1704700000B40CB
:102C540030B4154A536A9C46946A536A6345FAD160
:102C6400021959414FF0000528BF01250E4B5B6A3C
:102C7400B5B15A1C08BF1A4608D04FF0FF310A46B6
:102C84000948436A8B42FCD38B4207D1064902E0D0
:102C9400486A984202D1886A9042F9D330BC70479E
:102CA4009942EDD8F0E700BF00000B401F4B98425B
:102CB4000AD84FF47A731E4A03FB00F0916A936AB0
:102CC4005B1A9842FBD870474FF47A7130B4184BB2
:102CD400A0FB01015A6A94469C6A5A6A6245FAD179
:102CE40003194A414FF0000528BF01259DB9104939
:102CF400496A8A4203D90E48416A9142FCD39142FF
:102D040007D10B4902E0486A904202D1886A98428E
:102D1400F9D330BC7047064B5A6A531C08BF13469C
:102D2400EFD04FF0FF321346E5E700BF9BC420000D
:102D340000000B40074A536A9942FCD8994207D1D4
:102D4400044B02E05A6A914202D19A6A9042F9D83D
:102D5400704700BF00000B4000EB400C4FEA8C0CA6
:102D64000CF1804C0CF5803CF0B51646DCF80420E0
:102D7400051FB2F5803F38BF4FF48032EDB238BF43
:102D8400CCF80420012D2AD94FF40067254C0CF50A
:102D94004052176054F82020B2B9DCF80020012D0D
:102DA40082EA461202F0E0020CF5805632602AD91B
:102DB4004FF4006144F820304FF480330CF5005296
:102DC4001160CCF80430F0BD6769B7FBF2FE0EF178
:102DD400010E0EEB4E0EBEF1030EFCD2DDE701290F
:102DE400D2D103240CF540521460DCF80820D20739
:102DF400FBD5DCF800200B4C82EA461202F0E0021C
:102E04000CF5805632600122DCF800504D4005F08C
:102E14000305356002FA01F1DCF808200A42FBD010
:102E2400C6E700BF90F20720014B53F8200070471B
:102E340090F20720584B2DE9F0431C6C1746B4F56B
:102E4400803F38BF4FF4803283B038BF1A64032206
:102E540080460E46514B504DDA636C6CE307FCD54B
:102E6400EB6B4F4A83F0200303F0E003D363EB6B77
:102E7400494D83F0010303F00303D3636C6CA4078F
:102E8400FCD54FF400624FF48039464B464CDA636C
:102E9400464B4246636101213346C5F8409044489D
:102EA400009700F057F94FF400616B6B07FB06F6CF
:102EB4004B4538BFC5F83490384B2269B8FBF6F659
:102EC40019633AB16369B3FBF2F3013303EB4303D0
:102ED400033BFDD23049324A0B6B03F0E00313632A
:102EE4000B6B83F0020303F0030313638B6B58072C
:102EF400FCD54FF400654FF480332A4A15632D4AFC
:102F04004B6322610A6C9A424FF0030238BF0B6490
:102F1400224B2149DA634B6CDA07FCD5CB6B204A90
:102F240003F0E003D363CB6B1B4983F0010303F08D
:102F34000303D3634B6C9B07FCD54FF480334FF4EE
:102F44000065184A6661D5630B64CA6C9A4238BF3F
:102F5400CB644FF40061114BA26999643AB163697F
:102F6400B3FBF2F3013303EB4303033BFDD24FF412
:102F740000604FF48031084A094D936C83F040039C
:102F840003F0E003AB64074B084DA5619864D1647A
:102F940003B0BDE8F08300BF0000014000300140F1
:102FA400001001400020014090F20720006CDC0278
:102FB40000000540001BB7002DE9F04F4FF4A07846
:102FC400994685B0CDE902125F4CDFF884A15445DF
:102FD4000AD908F1FF38A4F53B54B8F10F0FA4F156
:102FE4002004F4D1002069E0072304F5372201947A
:102FF40003FB03F402F5D872B2FBF4FE70454FF004
:10300400010C4FF002074FF003064FF004054FF098
:1030140005013FD0B3F1010E00F094800EFB03F4E0
:10302400B2FBF4FB58454CD019B301FB03F4B2FBDB
:10303400F4FB58454FD0E5B105FB03F4B2FBF4FBB8
:10304400584553D0AEB106FB03F4B2FBF4FB58452C
:1030540057D077B107FB03F4B2FBF4FB58455BD0C0
:10306400BCF1000F05D00CFB03F4B2FBF4FB834569
:103074005DD0734603FB03F4B2FBF4FE704501F12B
:10308400FF3105F1FF3506F1FF3607F1FF370CF18B
:10309400FF3CBFD104FB1024002CBBD19E464A4602
:1030A400DDF808B0DDF80C900120284901FB08F197
:1030B400CBF80010C9F80030C2F800E005B0BDE854
:1030C400F08F04FB1024002CAED14A46DDF808B082
:1030D400DDF80C90E8E704FB1024002CABD14A4641
:1030E4008E46DDF808B0DDF80C90DDE704FB102413
:1030F400002CA7D14A46AE46DDF808B0DDF80C90A6
:10310400D2E704FB1024002CA3D14A46B646DDF8CE
:1031140008B0DDF80C90C7E704FB1024002C9FD105
:103124004A46BE46DDF808B0DDF80C90BCE704FB67
:103134001024002C9DD14A46E646DDF808B0DDF89F
:103144000C90B1E7019C44E750262F00001BB70008
:1031540050F80C0070B4039D04682D0345EA034540
:103164001B4B002CB3FBF1F3B2FBF3F61FDB194A44
:10317400194B904214BF4FF480424FF40042174C55
:103184001A6003F580531A60A36832EA0303FBD183
:10319400212200F540530433016086601A600268FE
:1031A400002AFCDA0822C5601A6070BC7047036804
:1031B40003F03F038B42DAD18368C3F30B03B342BA
:1031C400D5D1C36803F4EE23AB42D0D1EDE700BF01
:1031D400001BB700008005400020024000000240B0
:1031E40030B44FF080441C4B1C60E0B11B4CA3F581
:1031F4004053DC611A4C40F0010044401C625962A7
:1032040098624FF080454FF0E061134B1548164C1F
:103214001D60846019604AB930BC4FF00042A3F5C8
:1032240080531A607047114BD861EAE74FF47A7300
:1032340003FB02F2B2F1807F2ABF6FF07F43134693
:103244001A464FF080410A4C08482360094B4260FB
:1032540030BC1960704700BF00B00D40D3C007B048
:103264002D3FF84F00A00140F3FFFF0100800D4007
:103274000CF7072000A00D40012300EB4000800064
:1032840000F1804000F5841041600360704700BF86
:10329400002370B5DB8A04460D46002242E800F2A2
:1032A400520254BF1021042144F25220984786460A
:1032B4002B462246F446BDE870400A214FF4817043
:1032C400604700BF0023DB8A002242E800F252027A
:1032D40001D4102118470421184700BF08B503463C
:1032E40008462BB193FAA3F3B3FA83F341F0200019
:1032F4001946FFF7CDFF00BF08B503460846191E5F
:1033040002DB1AB140F03000FFF7C2FF40F02000AA
:10331400FAE700BF034AD2F82838002BFBD0BFF3EA
:103324005F8F704700000E400021044B044ABFF336
:103334005F8F43F8041B9342F9D170470C080E4089
:103344002C080E4010B44FF48D704FF42A64064AD2
:10335400064B07491460D06019605368002BFCDAEF
:103364005DF8044B704700BF0080044000A0044097
:1033740000B0FA00704700BF08B50148FEF7F0FB43
:10338400A491002038B5054C054DAC4204D254F844
:10339400043B9847AC42FAD338BD00BFC89600201E
:1033A4000897002010B40748074C084B084A0949FD
:1033B40004601A608B6832EA0303FBD15DF8044BA6
:1033C400704700BF002002407F3BEFEF0030024017
:1033D400F6FFF30300000240044BDB6CB3F5004F2F
:1033E40003D14FF48022024BDA647047000011507D
:1033F400002011504FF0E022044BD2F8881D0B43FB
:10340400C2F8883D10EE3004704700BF030330005B
:103414006FF06041044B054A19609368DB4333F055
:103424006043FAD1704700BF003002400000024000
:1034340010B545F25320FFF745FFBDE810400346A1
:103444000420184710B545F25320FFF73BFFBDE8B1
:103454001040034601201847FEF76EBC10B5054B1B
:10346400054C4FF488721846A16804F01BFFA06055
:1034740010BD00BF0000002000ED00E0002370B587
:103484002B4C82B0C4F88430FFF75CFF0122294B37
:10349400DA63636C012BFCD10321264A244B1163AC
:1034A4009C6B012CFCD10226052521460523224ACA
:1034B40022480096FFF74EFE21462B46204A21481B
:1034C4000095FFF747FE0022042031461E4BFFF70C
:1034D40043FC2146284600221C4BFFF73DFC0022FA
:1034E400082011461A4BFFF737FC00220920114629
:1034F400174BFFF731FC002206201146134BFFF750
:103504002BFC0022114B07201146FFF725FC042059
:10351400FFF78AFC00240F4BA3FB0035AD0CE0B28F
:1035240029460134FFF7A8FE062CF8D102B070BD7D
:103534000000014000300140002F685900000540A0
:10354400008C864700800540001BB70080D1F0083E
:10355400006CDC0283DE1B4386B003B451FC080418
:10356400CDE9020151FC0904CDE9040151EC0A043E
:10357400CDE9060103BCF047BDE800504EEC00C4A1
:10358400BDE800504EEC01C4BDE800504EEC02C44E
:1035940000BD000000B5FFF7DFFF02E010FE30F4CD
:1035A400F8D441EC100443EC112400EE010410EEB5
:1035B400010480EE200451EC1004704700B5FFF7BD
:1035C400CBFF02E010FE30F4F8D441EC100443ECDD
:1035D400112400EE010410EE210480EE200451ECCD
:1035E4003004704700B5FFF7B7FF02E010FE30F477
:1035F400F8D410B541EC100443EC112451EC04044C
:1036040053EC0524A0FB024C5FF0000EE0FB03CE5C
:10361400E1FB02CE4CEC20440024E1FB03E444EC47
:1036240030E480EE200451EC5004BDE810407047B3
:1036340000B5FFF791FF02E010FE30F4F8D441EC3E
:10364400100443EC112451EC2104A0FB01126FEA95
:10365400820252FB100052FB12F252FB1000A0EB4C
:10366400D07C53EC04245CFB13F153EC1524A1FB34
:10367400022001FB030053EC4424A2EB000050FBA6
:103684001CF24FEA111312EB017043EBE27140EAB2
:10369400515020EA915020F0070053EC7524A0FB10
:1036A400023C53EC752400FB03CC01FB02CC53EC2D
:1036B4000424ACEB824C40EA5C70A0F1010041ECC4
:1036C400400480EE200451EC7004704700B5FFF70D
:1036D40043FF02E010FE30F4F8D440EC700400EE36
:1036E400010410EE210480EE200451EC30047047F4
:1036F40000B5FFF731FF02E010FE30F4F8D440ECDF
:10370400600400EE010410EE210480EE200451EC6C
:103714003004704700B5FFF71FFF02E010FE30F4DD
:10372400F8D441EC800400EE010410EE010480EEB4
:10373400400410EE1304704700B5FFF70DFF02E0DC
:1037440010FE30F4F8D441EC800400EE010410EED5
:10375400010480EE400410EE3304704700B5FFF717
:10376400FBFE02E010FE30F4F8D441EC100443EC0C
:10377400112400EE010410EE3004C0F30070704711
:1037840000B5FFF7E9FE02E010FE30F4F8D443EC94
:10379400102441EC110400EE010410EE30F48CBF4F
:1037A40001200020704700BF00B5FFF7D5FE02E0FE
:1037B40010FE30F4F8D443EC102441EC110400EE74
:1037C400010410EE30F42CBF01200020704700BF2C
:1037D40000B5FFF7C1FE02E010FE30F4F8D441EC6E
:1037E400100443EC112400EE010410EE30F42CBF5D
:1037F40001200020704700BF00B5FFF7ADFE02E0D6
:1038040010FE30F4F8D441EC100443EC112400EE23
:10381400010410EE30F48CBF01200020704700BF7B
:103824009A4238BF88547047704700BF2DE9F04F63
:1038340083B09946DDE90DAB0F9B884611469A0784
:10384400074616D1DA453AD20C460D46ABEB0A06CA
:103854000E4422464B46414620200134B847B44228
:10386400F7D12946BAF1000F08D1204603B0BDE8CC
:10387400F08F0C46BAF1000F10D00E4655460C9B43
:103884002E449A440191721B4B46013D41461AF85D
:10389400010D3446B847002DF5D101990F9B9B07C4
:1038A400E3D5651AAB45E0D922464B464146202074
:1038B4000135B8475D4504F10104F5D3D5E70C465D
:1038C400BAF1000FD9D1D0E72DE9F04F0F9FDDF801
:1038D400248017F0020F0A9C9DF82CA00E9DDDE9B0
:1038E4000C9644D1F5BBB44241D207F0010B04F16C
:1038F400FF3C4FF0300EC44404E00134A6420CF8FF
:1039040001EF01D9202CF8D1BBF1000F00F0888021
:10391400A5422CD904F1FF3C4FF0300EC44404E01E
:103924000134AC420CF801EF21D0202CF8D117F06F
:10393400100F0ED017F4806F54D1A64263D0A54265
:1039440061D0B9F1100F50D0B9F1020F56D0202C2C
:1039540029D12024CDE90B57CDE90984BDE8F04FE6
:10396400FFF764BF17F0010B34D1B442BFD317F093
:10397400100F1ED017F4806FE3D1002CDDD1B9F104
:10398400100F63D0B9F1020F77D0302488F80040CB
:103994000124BAF1000F11D17E0748D52B2608F86F
:1039A40004600134D6E7264601344FF0300C08F8A1
:1039B40006C0202CCDD0BAF1000FEDD02D2608F88A
:1039C40004600134CDE90B57CDE90984BDE8F04F1B
:1039D400FFF72CBFBAF1000F30D0B44205F1FF3528
:1039E40085D395E7B9F1100FB3D1BE063BD5202C92
:1039F400AFD0582608F804600134A8E7202CA8D0DA
:103A04002646013407E0661EB9D0B9F1100F36D04E
:103A1400B9F1020FC9D14FF0620C08F806C096E75D
:103A240017F0100FC5D017F4806F86D089E73E07D2
:103A340090D5202608F8046001348BE717F00C0FAA
:103A440000D0013DB442FFF452AF61E7BC0612D48A
:103A5400782488F80040302488F801400224BAF120
:103A6400000F99D0AAE7202C3FF473AF782608F80A
:103A7400046001346BE75824EBE76224E9E717F0AC
:103A8400200FA4F1020C04D04FF0580E08F80CE0FB
:103A94008BE74FF0780E08F80CE086E700B9704722
:103AA40001F0CABB10B1D1E900311847704700BF1B
:103AB4002DE9F04F97B09DED207BDDE9225B0746B1
:103AC400884651EC170B249C99460C920B460246EF
:103AD4008DED047B0794FFF745FE002840F0F48148
:103AE400DDE904014FF0FF326FF48013FFF74CFE61
:103AF400002840F01B81DDE904014FF0FF32AC4B9C
:103B0400FFF77EFE002840F0EE80DDE90401A4A367
:103B1400D3E90023FFF774FE002840F0D380DDE9E9
:103B24000401A1A3D3E90023FFF72EFE002840F0EF
:103B3400C980DDE9040100220023FFF725FE0028E7
:103B440040F0E88023460D9013F4806F08BF0625EB
:103B540030212B460EAAA5F1200605E0013BB34215
:103B640002F8011B00F09381092BF7D81E46ED1AC9
:103B7400DDE90401FFF7D2FD8E4B044603EBC603D7
:103B840093ED007B8DED087BFFF7A4FD02460B4609
:103B9400DDE90401FFF716FDDDE90823FFF726FD43
:103BA40002460B46CDE90A23FFF7CAFD8246FFF71A
:103BB400A3FD02460B46DDE90A01FFF703FD0246B9
:103BC4000B46CDE90A2300227B4BFFF719FE0028A0
:103BD40000F0FE800AF1010A5046FFF78DFD02460F
:103BE4000B46DDE90801FFF7E3FD10B14FF0000AD1
:103BF4000134002E00F0FD80681E0EABDFF8CCC14E
:103C040018440FE0ACFB0A21C90801EB8102AAEBBE
:103C140042023032BAF1090F00F8012F40F21C8140
:103C24008A461D46202D05F1010306F1FF36E9D130
:103C34002025691E0EAB6148194410E080FB046224
:103C4400C3EBA20303EB8302A4EB420404F13002AE
:103C540001351C4601F8012F002B00F0EB80202DCC
:103C64004FEAE473EAD1079B03F00303012B18D155
:103C7400BBF1000F15D00D9B002B00F00A810BF156
:103C8400FF3BBBF1200F0CD96B1E0EA930220B4455
:103C940005E001355D4503F8012F80F0D180202D2A
:103CA400F7D1079B0EACCDE902B341464B463846EB
:103CB4000C9A01950094FFF7B9FD8246504617B05F
:103CC400BDE8F08F079B9DED047BCDE923B341460E
:103CD4004B4638460C9A8DED207B229517B0BDE8F3
:103CE400F04F00F045B9610723464CBF042303237A
:103CF4004146219338464B46079A48BF304CCDE99C
:103D040022B258BF2F4C0C9A209417B0BDE8F04F44
:103D1400FFF78CBDDDE9042300200021FFF752FCEE
:103D24000123CDE904010D9323460DE723469C07A7
:103D340040F0AA80BBF1040F40F2A6800C9B1D4604
:103D44001C1F04EB0B0A2A464B4641462020013532
:103D5400B847AA45F7D155461B4C261F14F8010D48
:103D64002A464B464146B847B44205F10105F5D110
:103D7400079B0AF1040A9807A0D50C9CAAEB04033C
:103D84009B459BD952464B46414620200AF1010AE5
:103D9400B847AAEB04035B45F4D38FE7AFF3008085
:103DA4000000000065CDCD410000000065CDCDC10F
:103DB400FFFFEF7F109400200000E03F6766666617
:103DC400F8910020009200200C920020CDCCCCCCA5
:103DD4000022DDE90A01634BFFF7D6FC00287FF4DB
:103DE40008AFBAF1000F6AD10AF1010A002E7FF47C
:103DF40003AF2046FFF76EFC02460B46DDE90401E3
:103E0400FFF7E0FB02460B46CDE904230022554BA5
:103E1400FFF7BAFC00287FF40CAFDDE904010022AF
:103E2400504BFFF7EDFC00287FF403AF013424F07E
:103E34000104FEE6079B03F00303012B00F08280DC
:103E4400202D3FF42EAF0D9B7BB32D220DEB0503EC
:103E540083F83820013524E7202B3FF4E9AE0EAA7D
:103E640015441E44302204E0202B05F8012F3FF4B2
:103E7400DFAE9E4203F10103F6D12E220DEB0603C1
:103E840083F83820751CD4E6DDF830A063E72025DC
:103E94006EE6079B13F00C0F50D00BF1FF3BAB45C4
:103EA4003FF6F2AE202D3FF4FCAE079B5A0701D536
:103EB4002B22CBE71B077FF5F4AE2022C6E71AF0CE
:103EC400010F3FF496AE8FE7A60734D1BBF1030F81
:103ED40031D90C9B1D46DC1E04EB0B0A2A464B46CB
:103EE400414620200135B8475545F7D155461E4C6B
:103EF400E61E14F8010D2A464B464146B847A64231
:103F040005F10105F5D1079B0AF1030A9D077FF529
:103F1400D5AE0C9CAAEB04039B457FF6CFAE52466C
:103F24004B46414620200AF1010AB847AAEB040394
:103F34009B45F4D8C2E6DDF830A0D7E7AB453FF6A1
:103F4400A3AEAEE6BBF1000F3FF47AAF0D9B002B9E
:103F54009FD00BF1FF3B5D45FFF496AE202D7FF41F
:103F640074AF9EE60000E03F0792002000000000CE
:103F74002DE9F04F9FB02A9EDDE928450746934678
:103F84000891099322462B46204629460E96DDE9E0
:103F94002BA6FFF7E7FB002840F0BE802046294609
:103FA4004FF0FF32784BFFF72BFC002840F0B48031
:103FB400204629464FF0FF326FF48013FFF7E4FBED
:103FC400002840F0A9802046294600220023FFF75C
:103FD400DBFB002840F0D581CDE90A45DDE90A2361
:103FE4009046994606F4006216F480630F92139388
:103FF40040F0A18058EA090340F0CA80002A40F04A
:10400400E38106230E9316F00202109240F0D4814D
:104014005346042B38BF04230C920422043B12920F
:104024000F932046294600220023FFF7ADFB00280A
:1040340040F0F3819DED0A7B0F9B5A4603930E9B40
:104044008DED007B029326F4006304933846099BAC
:104054000899FFF72DFD024616F0200F099B0899D9
:104064000CBF6520452002F10108B8470C9A129B49
:1040740016AC5D1E82EAE273A3EBE273D10F002655
:1040840022469946DFF804C101E0202E10D0CE4626
:10409400ACFB0930C00800EB8003A9EB43033033C9
:1040A400BEF1090F814606F1010602F8013BECD886
:1040B4000523002006930A2305950094099D089C76
:1040C4004246CDE90330CDE901612B46214638460D
:1040D400FFF7FAFB109A8046D2B1A0EB0B06B2456B
:1040E40016D90BEB06022B46214620200136B84791
:1040F400B245F6D80BF1FF335344CBF10102A3EBE5
:1041040008034244924538BF002308F1010898444B
:1041140040461FB0BDE8F08F5A463846CDE92845E1
:10412400CDE92BA60E9C099B08992A941FB0BDE8E3
:10413400F04FFFF7BDBC58EA09032BD1002A3FF426
:1041440062AF00230C930E9B0C9A934200F3B98147
:104154004FF000082046294600220023FFF714FBF5
:10416400002840F013819DED0A7B26F4006646F496
:1041740080668DED287B5A463846CDE92A8A099B0C
:1041840008992C96D2E700BFFFFFEF7FCDCCCCCCB3
:1041940006230E93C9F30A50A0F2FF30FFF79AFAF0
:1041A400C1A3D3E90023FFF721FAC1A3D3E9002374
:1041B400FFF7F4F9C9F31309CDE90C0149F07F5174
:1041C40040460022B24B41F44011FFF7FBF9A4A38F
:1041D400D3E90023FFF70AFA02460B46DDE90C0196
:1041E400FFF7DCF9FFF79AFA0C90FFF773FA9EA336
:1041F400D3E9002380468946FFF7F8F90022A54B4E
:10420400FFF7CCF9FFF78AFA034649464046129372
:1042140097A3D3E90023FFF7E9F98046129889466A
:10422400FFF758FA94A3D3E90023FFF7DFF9024616
:104234000B4640464946FFF7C5F902460B46804601
:104244008946FFF7D3F942464B46CDE91001404673
:104254004946FFF7A3F90022CDE91401DDE9100175
:104264008D4BFFF7E9F900228C4BFFF797F90246D3
:104274000B46DDE91001FFF7DFF90022884BFFF759
:104284008DF902460B46DDE91001FFF7D5F94246E8
:104294004B468046894600204FF08041FFF792F953
:1042A40002460B4640464946FFF778F902460B465C
:1042B400DDE91401FFF7C0F900227A4BFFF76EF92C
:1042C400129B002203F2FF3C4FEA0C53FFF78EF9D6
:1042D40080468946DDE90A0142464B46FFF754FA17
:1042E40050B10C9B4046013B49460C9300226B4B5A
:1042F400FFF7A2F9804689460C9A43466332C62AE0
:1043040006F00202109249460F9A2CD8002A5ED079
:10431400042212920B433FF416AFDDE90A0158A3BD
:10432400D3E90023FFF758FA48B1DDE90A0156A39F
:10433400D3E90023FFF728FA00287FF404AF0E9B8B
:10434400002B50D0139A002A7DD0013B0E93129B70
:104354009A4505D9109B002B00F0AE8002231093E0
:1043640000230F9344E022BBBAF1050F4FD906F0A6
:104374000203002B49D105231293AAF105030F93DD
:104384003AE005F100430A940B9327E626F400660D
:1043940046F4806638462C96DDE90A67344607F110
:1043A40000455A46CDE92A8ACDE92845099B089952
:1043B400BCE605221292ADE700230222CDE90F32BA
:1043C40004220C9312922CE64FF00508C2E6BAF1CF
:1043D400040F1FD9109B002B78D104231293AAF148
:1043E40004030F9304E0129B9A4531D80E9B0F935C
:1043F4000C9B002B3FF415AEDDE90A0142464B4607
:10440400FFF71AF9CDE90A010BE6022310930523FD
:104414001293F1E704231293EAE7DDE90A45A04683
:104424000F9B05F1004903930E9B5A46029326F411
:10443400006304933846CDE90089099B0899FFF786
:1044440037FB024608E6129B9A4544D80F92CFE701
:10445400109B8BB30E9B0F9302231093C8E700BFEE
:1044640061436F63A787D23F71A379094F930A40D1
:104474001655B5BBB16B0240EF39FAFE422EE63F4A
:104484002D431CEBE2361A3F0000000080842E41CD
:104494000000F83F0000E03F00002C4000002440F2
:1044A400000018400000F03FFB799F501344D33FB5
:1044B400B3C8608B288AC63F129BAAEB03030F93F1
:1044C40096E7A3EB020808F1FF3843E604231293AE
:1044D400022310938CE7109B002BEDD002230F9244
:1044E400109385E72DE9F04F9BB0249C954D0A94D9
:1044F400954CB1F1000A18BF834625601878934C97
:10450400914608BFA3460993002800F093824FF018
:1045140000080AE042464B46514608F10108D847D4
:10452400099B1878002800F0CE80099B252803F108
:1045340001030993EED11C460023224612F8010B15
:10454400A0F1200110290AD8DFE801F04009093C54
:104554000909090909090938093409093000A0F1D0
:1045640030010929099440F28A802A2800F0F08059
:1045740000252E2800F096800026A0F1680112295B
:104584002DD8DFE811F049012C0043012C0038013B
:104594002C002C002C002C002C002C002C002700BC
:1045A4002C002C002C002C002C002700144643F077
:1045B4000103C2E7144643F00203BEE7144643F086
:1045C4000403BAE7144643F01003B6E7144643F075
:1045D4000803B2E70999487843F4807301326728E5
:1045E40009927ED8242840F2C180A0F12502422AF3
:1045F40000F2BC80DFE812F05001BA00BA00BA0041
:10460400BA00BA00BA00BA00BA00BA00BA00BA00D6
:10461400BA00BA00BA00BA00BA00BA00BA00BA00C6
:10462400BA00BA00BA00BA00BA00BA00BA00BA00B6
:10463400BA00BA00BA00BA00190137011901BA0068
:10464400BA00BA00BA00BA00BA00BA00BA00BA0096
:10465400BA00BA00BA00BA00BA00BA00BA00BC0183
:10466400BA00BA00BA00BA00BA00BA00BA00BA0076
:10467400BA00BC015801BC01190137011901002518
:1046840000E0013205EB850500EB45051078303D6F
:10469400A0F130010929F4D92E28099202F101026E
:1046A4007FF46AAF099943F4806348781146A0F116
:1046B4003006092E40F221812A2800F02F81099228
:1046C4000026013259E74446C14501D809F1FF38B3
:1046D4004B46424651460020D84720461BB0BDE811
:1046E400F08FA0F16902D2B20F2A3FD8012149F21A
:1046F40041079140394040F0F3800A2A3DD0072A0F
:1047040034D10A9D55F8042B002A00F0138143F09C
:10471400210012AB1F460B9303E0202900F0148103
:104724001A4602F00F042346092C94BF3033373362
:104734000F2A07F8013B01F101014FEA1213ECD8EB
:1047440002E100BFD543002008F7072019370020F5
:104754000A99099851F8045B4078002DCDE90921A4
:10476400BCBF43F002036D42013202E742464B46AE
:10477400514608F10108D847D2E60A99002E51F8AB
:10478400047B18BF3246387808BF4FF0FF32002848
:1047940000F07B83BC18A4463A4604E012F8014FAB
:1047A400002C00F03F819445F8D16446E41B5A057F
:1047B40040F12281B44228BF344613F0020300F0D2
:1047C40088820223CDE90A5142461D46464408E048
:1047D4004B465146D84717F8010F08F1010810B1AC
:1047E40042464645F4D12B460B990A9D002B40F0D6
:1047F40041810A9194E6099948786C287FF4ECAEDB
:104804000A46887843F440730332E8E6099943F48E
:10481400007348780132E2E609994878682800F084
:10482400038143F080030132D9E6672800F0D98080
:10483400472800F0DC80452800F0DB80CDE90353F5
:104844000A9B0296073323F007031C464246F4E80A
:1048540002674B4651465846CDE900670A94FFF774
:1048640087FB80465CE6462808BF43F02003CDE979
:1048740003530A9B0296073323F007031C46424660
:10488400F4E802674B4651465846CDE900670A945E
:10489400FFF70EF9804643E642464B465146252033
:1048A40008F10108D8473BE60A9A990702F1040483
:1048B40008F1010640F1C68010784B464246514645
:1048C400D847012D88BFA84440F2BD8132464B46EB
:1048D400514620200136D8474645F7D10A941FE6B1
:1048E4006F2800F0818040F24882782800F090819F
:1048F4000A2723F01003BC4641E0002606EB860697
:1049040000EB4600A0F1300611F8010FA0F13002CF
:10491400092AF3D90A46099101322EE6DDE9092173
:1049240051F8046B9078023209920A91013226EA16
:10493400E67622E623F0100013F4806240F02100B2
:104944003FF4E7AE12AB0B930B9B06900093082346
:104954001020059300234246CDE9023001914B46D5
:10496400514658460496FEF7AFFF0A958046D7E5B0
:10497400582862D0622840F08F800227BC4613F486
:10498400806000F0DD8023F00D0313F4007240F02A
:1049940081810A990F1D13F4807140F037825C06FF
:1049A4000A9A40F13B811278002A40F04E8123F0AC
:1049B4001003002800F04981114612AA0B92CDE998
:1049C4000553CDE903C601910B9B42460093002396
:1049D4005146029358464B46FEF776FF0A978046A7
:1049E4009EE543F4006329E70827BC46C7E743F480
:1049F400006343F0200321E713F0020300F08E81EB
:104A040002230A951E460D4642464B465146D84758
:104A140017F8010F08F101080028F5D1294633469B
:104A24000A9DE3E6D41BC2E60A46887843F0C00335
:104A34000332D4E50446804646E6102743F02003BB
:104A4400BC469CE7012D40F2F880464608F1FF374A
:104A54002F4432464B46514620200136D847BE42A9
:104A6400F7D10A9B3246187851464B46D847A8449A
:104A74000A9455E54646A5427FF6BBAEA844A8EB8A
:104A840004080C4632464B46514620200136D8478E
:104A94004645F7D12146ACE613F4806200F0BB80B2
:104AA4004FF4806223F0110C1CF400770A9B4AD166
:104AB4001CF4807003F1040440F034811CF0400FB6
:104AC40040F0A3801CF0800F00F0D381B3F90010F4
:104AD40081EAE177A7EBE177BFB2CB0F002900F0C1
:104AE40056813A4612A90F46DFF8D8E30B910A9390
:104AF4000C9501E020280FD01546AEFB0213DB080D
:104B040003EB8301A2EB41013031092D1A4600F178
:104B1400010007F8011BEDD80A9B0C9DCDE9055C4B
:104B2400CDE9010304960B9B424600930A235146A8
:104B3400039358464B46FEF7C7FE0A948046EFE4BB
:104B440023F00C0321E7073323F007031946084633
:104B54005B6850F8081BDF0F0A9051EA030062D12A
:104B6400002A40F09F811346114612AACDE90C7524
:104B740000201546CDE90E68DFF848E30B9201E00A
:104B840020282DD05A1842F10002AEFB027828F0FA
:104B9400030707EB9807D21B1E469B1A61F1000717
:104BA4000C464FF0CC3101FB03F10EFB0711A3FBC4
:104BB4000E731944052307F00108A8FB03389B185A
:104BC4000A2E03F130034FEA570774F1000405F885
:104BD400013B00F1010047EAC1734FEA5101CFD212
:104BE400DDE90C75DDE90E680B9B424600930A2350
:104BF400CDE9055CCDE90107049603934B46514684
:104C04005846FEF761FE80468AE419780F4664E749
:104C14001027BC46B3E623F0100C45E71C064CBF36
:104C240012881268C0E60A46191E01DB13469CE787
:104C34005242134661EB410197E7134651461878F7
:104C440042464B46D847B04648E613F0200F14BFFF
:104C54004120612012ACA6460B940A93A0F10A04E9
:104C64000C9502E0202912D02A46B2FBFCF50CFB7D
:104C74001520C3B2092803F130008ABF1B19C3B23F
:104C8400DBB262450EF8013B01F10101EAD20A9B55
:104C94000C9D94E60A9A073222F00702516852F8F2
:104CA400084B8E460A9254EA010276D123F010038F
:104CB400002872D00022114612AA0B92CDE90553A6
:104CC4000B9B424600930023CDE903C60191029356
:104CD40094E7A54298BF01347FF674AD4FF4806326
:104CE400CDE90A7505EB08021F460D46141B424622
:104CF4004B465146202008F10108D847A045F6D17B
:104D04003B460A9F294638780B9D6C1C00283FF4CB
:104D140070AD002B3FF475AE002353E5A542DFD8F8
:104D240001346EE61968CB0F002900F0A88081EAEF
:104D3400E172A2EBE17212A90846DFF888E10B9157
:104D44000A930C9501E0202F0FD01546AEFB0213F9
:104D5400DB0803EB8301A2EB41013031092D1A4634
:104D640007F1010700F8011BEDD80A9B0C9DCDE962
:104D7400055CCDE901730496D5E6692823F0100C8F
:104D840040F08C8013F480623FF48EAE88E6002AF3
:104D94003FF4A8AE12AA0B92C0E613F0200F14BF82
:104DA40041226122002012A90A3ACDE90E68CDE918
:104DB4000C35CDF844B006468846754693460B91AB
:104DC400CDF840C003E0202E17D004460D462946F6
:104DD4003A460023204603F057F8D2B2092A02F1DA
:104DE400300388BF02EB0B03BC42DBB275F1000554
:104DF40008F8013B06F10106E5D23146DDE90C3540
:104E0400DDE910CBDDF83C800E9E57E70A9909686E
:104E140051B923F0100338B112A90B91CDE9055310
:104E2400CDE903C60192CFE513F0200F14BF412052
:104E3400612012ACA6460B940A93A0F10A040C95C7
:104E440002E0202A12D02946B1FBFCF50CFB151018
:104E5400C3B2092803F130008ABF1B19C3B2DBB205
:104E640061450EF8013B02F10102EAD20A9B0C9D56
:104E7400D4E7196881EAE177A7EBE1772DE6002A08
:104E84003FF459AF12AA0B9271E713F480640DD06A
:104E940013F0020412D004464646ECE50A276346A2
:104EA400BC466CE512AB00200B939DE613F00203A5
:104EB4007FF4E0AD002D7FF413AF9AE4002D7FF46E
:104EC4000DAF96E4CDCCCCCC0EB410B585B007AC08
:104ED40054F8043B01464FF0FF3200940448039415
:104EE400FFF700FB05B0BDE8104003B0704700BFFA
:104EF4001137002070B594461E4605460C4684B012
:104F04004FF0FF32634602A900960348CDE90254EC
:104F1400FFF7E8FA04B070BD9539002010B5094BCD
:104F240084B01C684CB1034600914FF0FF3203A9D2
:104F34000548A047012004B010BD00F0BFF9204689
:104F440004B010BD08F707208D39002000BEFDE72E
:104F540008B5FFF7FBFF00BF38B5064C064DFEF75A
:104F640011FAAC4204D254F8043B9847AC42FAD349
:104F740038BD00BF08970020149700200368084636
:104F8400114618472DE9F0411546427D07468846EB
:104F9400002A46D0002D1DDD0B780A2B23D0012DCD
:104FA4004FF0000C18D04646012416F8012F214674
:104FB4000A2A04F1010422D0A542F6D165450BDC8E
:104FC40008EB050313F8013CA3F10D03B3FA83F3D3
:104FD4005B093B75BDE8F0813B68A5EB0C0108EB70
:104FE4000C009847ECE7037D002BD8D1036802211D
:104FF4000F489847012DE3D04FF0010CD3E716F882
:10500400013C0D2BD8D08C4508EB0C00A1EB0C0116
:1050140001DA3B689847022105483B689847A44653
:10502400CAE7294640463B68BDE8F041184700BF3F
:10503400609400200B682DE9F041802B0D46064654
:1050440005D05A1C2B442A601E71BDE8F0810F4B19
:105054001C68A4B10E4F01F1040801E0246974B185
:105064002368002BFAD03B680BB1A342F6D120464B
:1050740041462A68FFF786FF2469002CF0D10023FB
:1050840001222B442A601E71BDE8F081E8F207205A
:10509400F0F207202DE9F04782B00D4691461C46F8
:1050A4000646FDF7CBFD4FF0FF3C6FF000472E4A5C
:1050B400821841F10003944577EB03013CBF62463B
:1050C4003B462A4803F040FA6B1C804640D00CB3A0
:1050D400274F284B1C68B4B1B9F1000F1CD1DFF87D
:1050E4009C9001E0246974B12368002BFAD0D9F8AC
:1050F40000300BB19C42F5D120462A463146B847D0
:105104002469002CF0D1B8F1000F26D1284602B052
:10511400BDE8F087184FDCE74FF00A0ADFF85C902F
:1051240002E02469002CEED02368002BF9D0D9F8D2
:1051340000300BB1A342F4D12A4631462046B84789
:10514400012220460DF107018DF807A0B847E8E7D2
:10515400304603F01DF90546B9E7044803F044FA64
:10516400284602B0BDE8F08740420F00C0960020F8
:10517400754E0020E8F207206D4E0020F0F2072063
:10518400084A136823B90AE003F110021B6933B11A
:105194008342F9D129B9186910601961704701B1C6
:1051A40010607047E8F2072000F024BB2DE9F041BD
:1051B40082B00646FDF742FD4FF0FF326FF0004328
:1051C400361841F10007B24273EB07013CBF1646A3
:1051D4001F46DFF86080154DD8F8004014B912E07E
:1051E400246984B12B680BB19C42F9D1A368002BCC
:1051F400F6D0012101A898470028F1DD9DF80400AC
:1052040002B0BDE8F0810A4B5A6A974209D89B6AFA
:10521400B34204D36FF0010002B0BDE8F0819742BD
:10522400F8D101200021FDF713FDD5E7F0F20720A6
:1052340000000B40E8F20720F0B583B006468DF875
:105244000700FDF7FBFC4FF0FF356FF00044174AF1
:10525400821841F10003954274EB03013CBF2346DD
:105264002A46134803F070F9124B07461C689CB198
:10527400114D01E024697CB12368002BFAD02B681E
:105284000BB19C42F6D1204601220DF10701FFF734
:1052940079FE2469002CEFD117B9304603B0F0BD74
:1052A400034803F0A1F9304603B0F0BD40420F00BB
:1052B400C0960020E8F20720F0F2072038B5044633
:1052C40003F066F8012305461A4620462946FFF7EF
:1052D400E1FE084B1C682CB163682BB19847246924
:1052E400002CF9D1284638BD2469002CF4D1284675
:1052F40038BD00BFE8F207202DE9F041A2B0044612
:105304000D46FDF79BFC4FF0FF376FF00046264A31
:10531400DFF8A480821841F10003974276EB030181
:105324003CBF3A463346214803F00EF900272B468A
:105334002246064601A91E480197FFF7DBFD019BA3
:105344000546D8F80040C3B1002C2BD0194F01E01A
:10535400246974B12368002BFAD03B680BB1A342D3
:10536400F6D12046019A02A9FFF70CFE2469002C0D
:10537400F0D10023D8F8004001932CB1636843B105
:1053840098472469002CF9D12EB9284622B0BDE8EB
:10539400F0812469F1E7054803F026F9284622B094
:1053A400BDE8F0810194EFE740420F00C096002071
:1053B400254F0020F0F20720E8F207200FB400B5D3
:1053C40083B004A951F8040B0191FFF795FF03B0D2
:1053D4005DF804EB04B07047704700BF0022014B36
:1053E4001A70704719FC07204B79FF2B0BD1887971
:1053F40048B9CB79012B07D1082A05D9034B8A7800
:1054040009201A7070470020704700BF19FC07205C
:1054140001207047012901D00120704708B5104BC5
:1054240091881B78994201D0002008BD5378012B44
:1054340008D0022BF8D1002164220846FDF7D0FEE3
:10544400012008BD5188CB0548BF480AC1F340225A
:1054540058BF4FF0FF3001F07F01FDF74DFF00BF53
:1054640019FC0720004870472C950020012907D11A
:105474005378012B02D19388072B03D00020704767
:10548400012070471146A623014A01F041BA00BF2A
:10549400849400200346012201481A70704700BF1B
:1054A4006494002008B50B68B3F5966F00D008BD6E
:1054B40000224FF0FF301146FDF71EFF024A034B56
:1054C40010601960704700BF7CF2072080F207204B
:1054D400184B70B51A68002A28D0EFF3108172B601
:1054E400D2E8CF4F0120002CFAD1C2E8440F002C9F
:1054F400F6D1BFF35F8F00220F4C186859602270F9
:10550400C0E88F2F81F31088002400250B4E3078DB
:10551400FCF754FC20B9002400252046294670BD20
:105524003078FCF75BFC2046294670BD4FF47A7452
:105534000025EBE7B4FB072020FC07201FFC072015
:10554400014B1878FCF74ABC1FFC072038B5044609
:1055540000200D4601F00CFBA8B3002001F01EFB57
:1055640088B3FDF76BFB4FF0FF3E6FF0004C174A1A
:10557400821841F1000396457CEB03013CBF72465F
:105584006346134802F0E0FFE8B1002001F0F0FAAE
:1055940058B900214FF0FF3000F012FD6FF0020403
:1055A4000B4803F021F8204638BD002001F0F6FA3C
:1055B4000028EED021462A46002001F0F9FA0446DC
:1055C4000028EDD1EAE76FF00204ECE740420F0057
:1055D400F0FB072008B5FDF731FB4FF0FF3E6FF0FD
:1055E400004C0F4A821841F1000396457CEB0301FD
:1055F4003CBF724663460B4802F0A6FF70B14FF001
:10560400FF30002100F0DCFC002001F019FB002831
:10561400F5D1BDE80840034802F0E6BF08BD00BF6D
:1056240040420F00F0FB07202DE9F84380460F4667
:10563400FDF704FB4FF0FF356FF00044334A821846
:1056440041F10003954274EB03013CBF2A46234613
:105654002F4802F079FF08B9BDE8F883002001F073
:1056640087FA002847D0002F40DD0025DFF8A890F6
:10567400284E13E02246002001F028FB00210446B6
:105684004FF0FF3000F09CFC002001F0D9FAFDF748
:10569400D5FAC9E900012544AF4227DD002001F015
:1056A40035FB7C1B8442A8BF044608EB0501002C93
:1056B400E0D121464FF0FF3000F082FC204601F09B
:1056C400BFFA204601F054FA80B1204601F01EFBD7
:1056D4000028E1D1FDF7B2FAD9F80030D9F8042056
:1056E4009B1942F1000283428A41D5D20848BDE8A1
:1056F400F84302F079BF00200021074BC3E9000101
:10570400BDE8F843024802F06FBF00BF40420F00FB
:10571400F0FB072020A10700A098002030B500214D
:1057240085B02E4802F0B2FEF0B92D4B1A68CAB10A
:10573400EFF3108172B6D2E8CF5F0124002DFAD1C5
:10574400C2E8454F002DF6D1BFF35F8F254C1D688D
:1057540022785960D3B201222270C5E88F0F81F3F9
:105764001088CBB105B030BD00214FF0FF3000F000
:1057740027FC002001F012FA0446184802F034FF16
:10578400002CEFD0184B1B68002BEBD0174A106885
:1057940005B0BDE830401847FDF746F80446FDF76C
:1057A4004DFA4FF0FF3C6FF0004510F57A7241F16D
:1057B4000003944575EB030138BF2B464FF00001FD
:1057C4004FF0010520460A4C38BF6246CDE9011569
:1057D4000094FDF72DF805B030BD00BFF0FB0720A5
:1057E400B4FB072020FC07207CF2072080F207206E
:1057F400C15300204FF0504330B585B01C68FDF70D
:1058040013F8FDF727F9A04202D0002005B030BDFF
:1058140000212A4B08461B7801F040FD2848036804
:10582400002B47D00120FCF785FD0346254C264973
:10583400C0B22370FCF7EEFA20780121FCF7A8FA35
:105844000E20FCF7D7FA40BB204B0125C3E900002A
:10585400FCF7EAFF0446FDF7F1F94FF0FF3E6FF065
:10586400004C10F57A7241F1000396457CEB03017C
:105874004FF000012046164C3CBF72466346CDE90A
:1058840001150094FCF7D4FF0028BEDB0121114868
:10589400FFF776FC012005B030BD0120FCF734FA97
:1058A40001460A48FCF7A2FD00220E200A49FCF733
:1058B400E1FAEBE7FCF77EFDB4E700BF200200103D
:1058C400F0FB07201FFC07200D560020B4FB072027
:1058D400C1530020809600203154002000487047B6
:1058E400C8950020004870477495002038B5184BBF
:1058F40004461A780AB344B940F209424FF441739A
:10590400144D6A8013482B8038BD052C1DD8124BCA
:10591400104D53F8241028460023013903E0132BBB
:1059240020F8022F0ED011F8012F0133DBB2002A28
:10593400F5D15B0043F44073E4E71121184600F00D
:105944002DF8D8E74FF44A73DCE7002038BD00BFD8
:10595400FCFB0720B8F207205C95002000B545F257
:1059640047308BB0FDF7AEFC01220346092101A8A4
:105974009847DDE90332044912BA1BBAC1E900238E
:105984000BB05DF804FB00BFE0FB07200346024AAE
:1059940003CA186059607047E0FB0720012901F130
:1059A400FF3300F0B3805D490A784FEA121C9F2A46
:1059B4008CBF0CF1370C0CF1300C012B80F800C0BB
:1059C40000F0A78002F00F02092A8CBF3732303270
:1059D400022B427000F09D804A784FEA121C9F2AE5
:1059E4008CBF0CF1370C0CF1300C032B80F802C087
:1059F40000F08F8002F00F02092A8CBF3732303258
:105A0400042BC27000F085808A784FEA121C9F2A0A
:105A14008CBF0CF1370C0CF1300C052B80F804C052
:105A240077D002F00F02092A8CBF37323032062BAE
:105A340042716ED0CA784FEA121C9F2A8CBF0CF1B7
:105A4400370C0CF1300C072B80F806C061D002F043
:105A54000F02092A8CBF37323032082BC27158D05A
:105A64000A794FEA121C9F2A8CBF0CF1370C0CF1F7
:105A7400300C092B80F808C04BD002F00F02092A21
:105A84008CBF373230320A2B427242D04A794FEA05
:105A9400121C9F2A8CBF0CF1370C0CF1300C0B2B11
:105AA40080F80AC035D002F00F02092A8CBF3732C1
:105AB40030320C2BC2722CD08A794FEA121C9F2AE6
:105AC4008CBF0CF1370C0CF1300C0D2B80F80CC092
